:020000040800F2
:100000001804002045050008A5050008A5050008FE
:10001000A5050008A5050008A505000800000000CA
:10002000000000000000000000000000A50500081E
:10003000A505000800000000A5050008A5050008AA
:10004000A5050008A5050008A5050008A5050008E8
:10005000A5050008A5050008A5050008A5050008D8
:10006000A5050008A5050008A5050008A5050008C8
:10007000A5050008A5050008A5050008A5050008B8
:10008000A5050008A5050008A5050008A5050008A8
:10009000A5050008A5050008A5050008A505000898
:1000A000A5050008A5050008A5050008A505000888
:1000B000A5050008A5050008A5050008A505000878
:1000C000A5050008A5050008A5050008A505000868
:1000D000A5050008A5050008A5050008A505000858
:1000E000A5050008A5050008A505000800000000FA
:1000F0000000000000000000000000000000000000
:1001000000000000000000005FF808F180B500AFBB
:10011000154B154A126842F001021A60124A124B3E
:100120005968124B0B4053600F4A0F4B1B6823F06A
:10013000847323F4803313600B4B0B4A126822F450
:1001400080221A60084B084A526822F4FE025A6064
:10015000054B4FF41F029A6000F00CF8044B4FF06F
:1001600000629A6080BD00BF001002400000FFF8EE
:1001700000ED00E080B500AF00F002F880BD00BFE8
:1001800080B483B000AF00237B6000233B603A4B18
:10019000394A126842F480321A60374B1B6803F404
:1001A00000333B607B6801337B603B68002B03D1ED
:1001B0007B68B3F5A06FF0D12F4B1B6803F40033BD
:1001C000002B02D001233B6001E000233B603B6831
:1001D000012B4BD1294B294A126842F010021A60B8
:1001E000264B264A126822F003021A60234B234A48
:1001F000126842F002021A601F4B1F4A52685A608E
:100200001D4B1D4A52685A601B4B1B4A526842F4F0
:1002100080625A60184B184A526822F47C125A6065
:10022000154B154A526842F4E8125A60124B124AB2
:10023000126842F080721A6000BF0F4B1B6803F017
:100240000073002BF9D00C4B0B4A526822F00302CA
:100250005A60094B084A526842F002025A6000BFD5
:10026000054B5B6803F00C03082BF9D10C37BD4636
:100270005DF8047B704700BF001002400020024080
:1002800080B582B000AF3B600346FB710B46BB718B
:1002900013467B713B681B78072B6DD801A252F87F
:1002A00023F000BFC5020008D5020008790300084A
:1002B000F9020008790300081B030008790300080D
:1002C0004B0300083048012100F0DEFC3B680122AE
:1002D0001A7052E02C482D4900F08AFD0346002B8D
:1002E00009D03B6803221A707B79274819460022FF
:1002F00000F048FD41E040E02348254900F078FD4A
:100300000346002B08D03B6805221A70BB791E48B3
:10031000194600F019FD30E02FE01B481D4900F0A0
:1003200067FD0346002B06D117481B4900F060FD0E
:100330000346002B08D03B6807221A70FB7912484D
:10034000194600F001FD18E017E00F48114900F0D0
:100350004FFD0346002B06D10B480F4900F048FD26
:100360000346002B07D03B6813221A700648012170
:1003700000F0AAFC01E000E000BF3B681B781846D3
:100380000837BD4680BD00BF005400400100030097
:1003900082000700800007008400070080B584B059
:1003A00000AFF8607B600B46FB721346BB727B6844
:1003B0001B780F2B00F2B18001A252F823F000BF8E
:1003C00001040008190400081B0500083D0400088A
:1003D0001B0500085F0400081B0500081B0500083A
:1003E0001B0500081B0500088D0400081B050008FC
:1003F000D5040008B10400081B050008F504000836
:100400004948012100F080FC4748012100F03CFCF4
:100410007B6801221A7081E04348444900F0E8FCFF
:100420000346002B09D07B6803221A70BB7A3E4832
:100430001946002200F0A6FC70E06FE03A483C4903
:1004400000F0D6FC0346002B08D07B6805221A700A
:10045000FB7A3548194600F077FC5FE05EE03248F1
:10046000344900F0C5FC0346002B06D12E48324922
:1004700000F0BEFC0346002B07D07B680A221A70EE
:100480002948012100F000FC48E047E026482749C0
:1004900000F0AEFC0346002B09D07B680D221A70D9
:1004A000BB7A21481946012200F06CFC36E035E0A9
:1004B0001D48142100F084FC034603F00203002BC6
:1004C00007D07B680C221A701748002100F01CFC32
:1004D00024E023E01448194900F08AFC0346002B6D
:1004E00007D07B680F221A700F48012100F0ECFB47
:1004F00014E013E00C48124900F07AFC0346002B8C
:100500000AD07B6813221A70074800F02DFC0346BE
:100510001A46FB681A7001E000E000BF7B681B7898
:1005200018461037BD4680BD00540040010003004E
:10053000820007008000070084000700020003001B
:100540004000030080B582B000AF114B7B60114BBF
:100550003B6007E03B681A1D3A607A68111D7960BC
:1005600012681A603A680C4B9A42F3D30B480C4954
:100570004FF000028842B8BF40F8042BFFF6FAAFF4
:10058000FFF7C4FD00F0CEF80837BD4680BD00BFC0
:100590000C130008000000201400002014000020AC
:1005A0001400002080B400AFFEE700BF80B489B023
:1005B00000AF786039600023FB6100233B610023BA
:1005C000BB610023FB6000237B610023BB603B68B1
:1005D000DB7803F00F03FB613B68DB7803F010036B
:1005E000002B04D03B689B78FA691343FB613B689E
:1005F0001B88DBB2002B44D07B681B687B61002327
:10060000BB6138E0BB69012202FA03F3FB603B687F
:100610001B881A46FB6813403B613A69FB689A42A3
:1006200026D1BB699B00FB60FB680F2202FA03F333
:10063000BB60BB68DB437A6913407B61FB68FA6986
:1006400002FA03F37A6913437B613B68DB78282B5A
:1006500005D1BB6901229A407B685A6108E03B687A
:10066000DB78482B04D1BB6901229A407B681A6170
:10067000BB690133BB61BB69072BC3D97B687A694E
:100680001A603B681B88FF2B46D97B685B687B61DF
:100690000023BB613AE0BB690833012202FA03F38D
:1006A000FB603B681B881A46FB6813403B613A6954
:1006B000FB689A4227D1BB699B00FB60FB680F2255
:1006C00002FA03F3BB60BB68DB437A6913407B61CA
:1006D000FB68FA6902FA03F37A6913437B613B68AA
:1006E000DB78282B05D1BB69083301229A407B684F
:1006F0005A613B68DB78482B05D1BB69083301227E
:100700009A407B681A61BB690133BB61BB69072BE7
:10071000C1D97B687A695A602437BD465DF8047B8D
:10072000704700BF80B588B000AF0123FB7700237E
:10073000BB7701237B7700233B770023FB76464B77
:100740007B61454B3B610023FB710023BB710023A0
:10075000FB8100237B7113233B711323FB7000F09B
:100760007FF900F069F900F08BF9BB7F002B0DD108
:100770007B1D002009219822FFF782FD0346132BE1
:1007800069D10123BB7701233B77EEE73B7F012B48
:100790001FD1FB7E002B0CD17B69013B7B617B6908
:1007A000002B58D100233B770023FB7700233B71BC
:1007B00051E0FB7E012B4ED13B69013B3B613B6924
:1007C000002B48D100233B7700237B770023FB706D
:1007D000CBE7FB7F002B13D1FA1D3B1D10460121F7
:1007E0009822FFF7DBFD0346132B34D10123FB775F
:1007F0004CF250337B6101233B770123FB76B4E756
:100800007B7F002B27D1BA1DFB1C1046102198229C
:10081000FFF7C4FD0346132B1DD101237B774CF258
:1008200050333B6101233B770023FB76FB79DB00F0
:100830009AB2BB795B09DBB21344FB81FB89184692
:1008400000F0BCFB034618464FF0824100F0C2FCAA
:100850000346BB6089E788E780841E0080B487B0C8
:1008600000AF786000237B6100233B610023FB60C5
:100870000023BB604D4B5B6803F00C037B617B691D
:10088000042B07D0082B09D0002B34D17B68484AB1
:100890001A6034E07B68464A1A6030E0434B5B687C
:1008A00003F470133B61414B5B6803F48033FB60DE
:1008B0003B699B0C02333B61FB68002B06D13B6913
:1008C0003C4A02FB03F27B681A6013E0374B5B681B
:1008D00003F40033002B06D03B69364A02FB03F2D7
:1008E0007B681A6006E03B69314A02FB03F27B68D1
:1008F0001A6004E003E07B682D4A1A6000BF2B4BAE
:100900005B6803F0F0037B617B691B097B612A4A0A
:100910007B6913441B78DBB2BB607B681A68BB68D9
:10092000DA407B685A60214B5B6803F4E0637B61CB
:100930007B691B0A7B61204A7B6913441B78DBB20D
:10094000BB607B685A68BB68DA407B689A60174B6B
:100950005B6803F460537B617B69DB0A7B61164A49
:100960007B6913441B78DBB2BB607B685A68BB6849
:10097000DA407B68DA600D4B5B6803F440437B61CF
:100980007B699B0B7B610D4A7B6913441B78DBB24F
:10099000BB607B68DA68BB68B2FBF3F27B681A6104
:1009A0001C37BD465DF8047B704700BF0010024055
:1009B00000127A0000093D00000000201000002015
:1009C00080B483B000AF78600B46FB70FB78002BDF
:1009D00006D0094B084A91697A680A439A6106E091
:1009E000054B054A91697A68D2430A409A610C37EF
:1009F000BD465DF8047B70470010024080B483B0B0
:100A000000AF78600B46FB70FB78002B06D0094BDB
:100A1000084AD1697A680A43DA6106E0054B054A5B
:100A2000D1697A68D2430A40DA610C37BD465DF875
:100A3000047B70470010024080B582B000AFC02335
:100A4000BB800323BB711C23FB713B1D034819466C
:100A5000FFF7ACFD0837BD4680BD00BF000C01406C
:100A600080B500AF08200121FFF7AAFF0120012176
:100A7000FFF7A6FF4FF400100121FFF7BFFF80BD75
:100A800080B584B000AF0023BB804BF6FF73FB80C2
:100A9000A0233B814FF480637B814FF48043BB8173
:100AA000064B3B603B460648194600F00BF80448ED
:100AB000012100F0C9F81037BD4680BD801A06003C
:100AC0000054004080B58AB000AF786039600023E0
:100AD000FB8400237B840423BB84574BFB617B682E
:100AE0009B88FB84FB8C23F03F03FB8407F1080306
:100AF0001846FFF7B3FE3B69FB61FA694F4BA3FB56
:100B000002139B0C7B84FA8C7B8C1343FB847B68E5
:100B1000FA8C9A807B681B889BB223F001039AB2FF
:100B20007B681A800023FB843B681A68444B9A4216
:100B300015D83B681B685B00FA69B2FBF3F3BB8412
:100B4000BB8C032B01D80423BB84FA8CBB8C1343CE
:100B5000FB847B8C01339AB27B681A8440E03B684B
:100B6000DA884BF6FF739A4209D13B681A6813463C
:100B70005B001344FA69B2FBF3F3BB840EE03B68FD
:100B80001A6813469B0013449A001344FA69B2FB97
:100B9000F3F3BB84BB8C43F48043BB84BB8CC3F3B3
:100BA0000B03002B03D1BB8C43F00103BB84BA8C35
:100BB000FB8C13439BB26FEA43436FEA5343FB84BE
:100BC0007B8C4FF4967202FB03F31E4A82FB0312E6
:100BD0009211DB17D31A9BB201339AB27B681A8445
:100BE0007B68FA8C9A837B681B889BB243F0010375
:100BF0009AB27B681A807B681B88FB84FB8C23F489
:100C0000816323F00203FB843B689A883B685B891D
:100C100013439AB2FB8C1343FB847B68FA8C1A80D3
:100C20003B689A893B681B8913439AB27B681A8197
:100C30002837BD4680BD00BF00127A0083DE1B430B
:100C4000A0860100D34D621080B483B000AF7860FD
:100C50000B46FB70FB78002B08D07B681B889BB28F
:100C600043F001039AB27B681A8007E07B681B8817
:100C70009BB223F001039AB27B681A800C37BD4601
:100C80005DF8047B704700BF80B483B000AF78602C
:100C90000B46FB70FB78002B08D07B681B889BB24F
:100CA00043F480739AB27B681A8007E07B681B88E4
:100CB0009BB223F480739AB27B681A800C37BD46CE
:100CC0005DF8047B704700BF80B483B000AF7860EC
:100CD0000B46FB70FB78002B08D07B681B889BB20F
:100CE00043F400739AB27B681A8007E07B681B8824
:100CF0009BB223F400739AB27B681A800C37BD460E
:100D00005DF8047B704700BF80B483B000AF7860AB
:100D10000B46FB70FB78002B08D07B681B889BB2CE
:100D200043F480639AB27B681A8007E07B681B8873
:100D30009BB223F480639AB27B681A800C37BD465D
:100D40005DF8047B704700BF80B483B000AF78606B
:100D50000B46FB70FB789AB27B681A820C37BD4653
:100D60005DF8047B704700BF80B483B000AF78604B
:100D70007B681B8A9BB2DBB218460C37BD465DF818
:100D8000047B704780B483B000AF786013460A4696
:100D9000FA70BB70BB78002B04D0FB7843F00103E2
:100DA000FB7003E0FB7823F00103FB70FB789AB241
:100DB0007B681A820C37BD465DF8047B704700BF24
:100DC00080B485B000AF78600B46FB700023FB60F9
:100DD0007B68FB60FA78FB681344FB60FB681B8848
:100DE0009BB218461437BD465DF8047B704700BFC0
:100DF00080B487B000AF7860396000233B61002386
:100E0000FB600023BB600023FB757B689B8A9BB261
:100E1000FB607B681B8B9BB2BB60BB681B04BB6029
:100E2000FA68BB68134323F07F433B613A693B6830
:100E30001A403B689A4202D10123FB7501E000236E
:100E4000FB75FB7D18461C37BD465DF8047B70477B
:100E500080F0004002E000BF81F0004142001FBF6F
:100E60005FEA410392EA030F7FEA226C7FEA236C78
:100E70006AD04FEA1262D2EB1363C1BFD21841406D
:100E800048404140B8BF5B42192B88BF704710F003
:100E9000004F40F4000020F07F4018BF404211F0A6
:100EA000004F41F4000121F07F4118BF494292EA0E
:100EB000030F3FD0A2F1010241FA03FC10EB0C003A
:100EC000C3F1200301FA03F100F0004302D54942C7
:100ED00060EB4000B0F5000F13D3B0F1807F06D374
:100EE00040084FEA310102F10102FE2A51D2B1F16C
:100EF000004F40EBC25008BF20F0010040EA030061
:100F00007047490040EB000010F4000FA2F101020D
:100F1000EDD1B0FA80FCACF1080CB2EB0C0200FA97
:100F20000CF0AABF00EBC25052421843BCBFD040E5
:100F30001843704792F0000F81F4000106BF80F45F
:100F400000000132013BB5E74FEA41037FEA226C22
:100F500018BF7FEA236C21D092EA030F04D092F0ED
:100F6000000F08BF0846704790EA010F1CBF002021
:100F7000704712F07F4F04D1400028BF40F000407E
:100F8000704712F100723CBF00F50000704700F09E
:100F9000004343F0FE4040F4000070477FEA2262C5
:100FA00016BF08467FEA23630146420206BF5FEA96
:100FB000412390EA010F40F4800070474FF0000396
:100FC00004E000BF10F0004348BF40425FEA000C5D
:100FD00008BF704743F0964301464FF000001CE005
:100FE00050EA010208BF70474FF000030AE000BF5B
:100FF00050EA010208BF704711F0004302D5404299
:1010000061EB41015FEA010C02BF8446014600200A
:1010100043F0B64308BFA3F18053A3F50003BCFA25
:101020008CF2083AA3EBC25310DB01FA02FC6344D2
:1010300000FA02FCC2F12002BCF1004F20FA02F2D9
:1010400043EB020008BF20F00100704702F12002CC
:1010500001FA02FCC2F1200250EA4C0021FA02F22D
:1010600043EB020008BF20EADC7070474FF0FF0C32
:101070001CEAD0521EBF1CEAD15392EA0C0F93EA2D
:101080000C0F6FD01A4480EA010C400218BF5FEACF
:1010900041211ED04FF0006343EA501043EA511142
:1010A000A0FB01310CF00040B1F5000F3EBF49003C
:1010B00041EAD3715B0040EA010062F17F02FD2A40
:1010C0001DD8B3F1004F40EBC25008BF20F0010023
:1010D000704790F0000F0CF0004C08BF49024CEA3A
:1010E000502040EA51207F3AC2BFD2F1FF0340EACC
:1010F000C250704740F400004FF00003013A5DDC3D
:1011000012F1190FDCBF00F000407047C2F100027D
:10111000410021FA02F1C2F1200200FA02FC5FEA6A
:10112000310040F1000053EA4C0308BF20EADC70B4
:10113000704792F0000F00F0004C02BF400010F426
:10114000000F013AF9D040EA0C0093F0000F01F0D3
:10115000004C02BF490011F4000F013BF9D041EAF5
:101160000C018FE70CEAD15392EA0C0F18BF93EAF7
:101170000C0F0AD030F0004C18BF31F0004CD8D121
:1011800080EA010000F00040704790F0000F17BFA8
:1011900090F0004F084691F0000F91F0004F14D0EE
:1011A00092EA0C0F01D142020FD193EA0C0F03D146
:1011B0004B0218BF084608D180EA010000F0004049
:1011C00040F0FE4040F40000704740F0FE4040F424
:1011D000400070474FF0FF0C1CEAD0521EBF1CEAC3
:1011E000D15392EA0C0F93EA0C0F69D0A2EB0302E1
:1011F00080EA010C49024FEA402037D04FF080537B
:1012000043EA111143EA10130CF000408B4238BF3F
:101210005B0042F17D024FF4000C8B4224BF5B1A4D
:1012200040EA0C00B3EB510F24BFA3EB510340EA9B
:101230005C00B3EB910F24BFA3EB910340EA9C0049
:10124000B3EBD10F24BFA3EBD10340EADC001B01B9
:1012500018BF5FEA1C1CE0D1FD2A3FF650AF8B425D
:1012600040EBC25008BF20F0010070470CF0004C6A
:101270004CEA50207F32C2BFD2F1FF0340EAC25095
:10128000704740F400004FF00003013A37E792F056
:10129000000F00F0004C02BF400010F4000F013AB4
:1012A000F9D040EA0C0093F0000F01F0004C02BFAF
:1012B000490011F4000F013BF9D041EA0C0195E718
:1012C0000CEAD15392EA0C0F08D142027FF47DAFB1
:1012D00093EA0C0F7FF470AF084676E793EA0C0FA1
:1012E00004D14B023FF44CAF08466EE730F0004C9F
:1012F00018BF31F0004CCAD130F000427FF45CAF2F
:0C13000031F000437FF43CAF5FE700BF1A
:10130C00000000000102030401020304060708099F
:04131C0002040608B9
:0400000508000000EF
:00000001FF
